{
  "contractName": "Voting",
  "abi": [
    {
      "constant": true,
      "inputs": [
        {
          "name": "proposalID",
          "type": "uint256"
        }
      ],
      "name": "totalVotes",
      "outputs": [
        {
          "name": "",
          "type": "uint256"
        }
      ],
      "payable": false,
      "stateMutability": "view",
      "type": "function"
    },
    {
      "constant": false,
      "inputs": [
        {
          "name": "name",
          "type": "bytes32"
        },
        {
          "name": "party",
          "type": "bytes32"
        }
      ],
      "name": "addproposal",
      "outputs": [
        {
          "name": "",
          "type": "uint256"
        },
        {
          "name": "",
          "type": "bytes32"
        },
        {
          "name": "",
          "type": "bytes32"
        }
      ],
      "payable": false,
      "stateMutability": "nonpayable",
      "type": "function"
    },
    {
      "constant": true,
      "inputs": [],
      "name": "getNumOfshareholders",
      "outputs": [
        {
          "name": "",
          "type": "uint256"
        }
      ],
      "payable": false,
      "stateMutability": "view",
      "type": "function"
    },
    {
      "constant": true,
      "inputs": [
        {
          "name": "uid",
          "type": "bytes32"
        },
        {
          "name": "candidateID",
          "type": "uint256"
        }
      ],
      "name": "getNumOfproposals",
      "outputs": [
        {
          "name": "",
          "type": "uint256"
        }
      ],
      "payable": false,
      "stateMutability": "view",
      "type": "function"
    },
    {
      "constant": true,
      "inputs": [
        {
          "name": "proposalID",
          "type": "uint256"
        },
        {
          "name": "party",
          "type": "bytes32"
        }
      ],
      "name": "getproposal",
      "outputs": [
        {
          "name": "",
          "type": "uint256"
        },
        {
          "name": "",
          "type": "bytes32"
        },
        {
          "name": "",
          "type": "bytes32"
        }
      ],
      "payable": false,
      "stateMutability": "view",
      "type": "function"
    },
    {
      "constant": false,
      "inputs": [
        {
          "name": "uid",
          "type": "bytes32"
        },
        {
          "name": "proposalID",
          "type": "uint256"
        }
      ],
      "name": "vote",
      "outputs": [
        {
          "name": "",
          "type": "uint256"
        }
      ],
      "payable": false,
      "stateMutability": "nonpayable",
      "type": "function"
    },
    {
      "inputs": [],
      "payable": false,
      "stateMutability": "nonpayable",
      "type": "constructor"
    },
    {
      "anonymous": false,
      "inputs": [
        {
          "indexed": false,
          "name": "proposalID",
          "type": "uint256"
        }
      ],
      "name": "Addedproposal",
      "type": "event"
    }
  ],
  "bytecode": "0x6060604052341561000f57600080fd5b336000806101000a81548173ffffffffffffffffffffffffffffffffffffffff021916908373ffffffffffffffffffffffffffffffffffffffff1602179055506104528061005e6000396000f300606060405260043610610078576000357c0100000000000000000000000000000000000000000000000000000000900463ffffffff16806319e6e1581461007d57806321f89314146100b457806362ec8df1146100e8578063740c877f146101115780638795075f1461013a5780639ef1204c1461018f575b600080fd5b341561008857600080fd5b61009e60048080359060200190919050506101bf565b6040518082815260200191505060405180910390f35b34156100bf57600080fd5b6100e660048080356000191690602001909190803560001916906020019091905050610214565b005b34156100f357600080fd5b6100fb61033d565b6040518082815260200191505060405180910390f35b341561011c57600080fd5b610124610347565b6040518082815260200191505060405180910390f35b341561014557600080fd5b61015b6004808035906020019091905050610351565b6040518084815260200183600019166000191681526020018260001916600019168152602001935050505060405180910390f35b341561019a57600080fd5b6101bd600480803560001916906020019091908035906020019091905050610392565b005b6000806000809150600090505b60025481101561020a5783600460008381526020019081526020016000206001015414156101fd5781806001019250505b80806001019150506101cc565b8192505050919050565b60008060009054906101000a900473ffffffffffffffffffffffffffffffffffffffff1673ffffffffffffffffffffffffffffffffffffffff163373ffffffffffffffffffffffffffffffffffffffff1614151561027157600080fd5b6001600081548092919060010191905055905060606040519081016040528084600019168152602001836000191681526020016001151581525060036000838152602001908152602001600020600082015181600001906000191690556020820151816001019060001916905560408201518160020160006101000a81548160ff0219169083151502179055509050507fdb7997f982a40a83fa1326b6a1e186db93d82d9daffc88c63ee246dd3651988c816040518082815260200191505060405180910390a1505050565b6000600254905090565b6000600154905090565b600080600083600360008681526020019081526020016000206000015460036000878152602001908152602001600020600101549250925092509193909250565b6000600115156003600084815260200190815260200160002060020160009054906101000a900460ff16151514156104215760026000815480929190600101919050559050604080519081016040528084600019168152602001838152506004600083815260200190815260200160002060008201518160000190600019169055602082015181600101559050505b5050505600a165627a7a72305820f9472aa081decc6cad10ca3d41a2286d45ebc29c32bff1985b139793ddb730d30029",
  "source": "pragma solidity ^0.4.18;\n// written for Solidity version 0.4.18 and above that doesnt break functionality\n\ncontract Voting {\n    // an event that is called whenever a proposal is added so the frontend could\n    // appropriately display the proposal with the right element id (it is used\n    // to vote for the proposal, since it is one of arguments for the function \"vote\")\n    event Addedproposal(uint proposalID);\n\n    // describes a shareholder, which has an id and the ID of the proposal they voted for\n    address owner;\n    function Voting()public {\n        owner=msg.sender;\n    }\n    modifier onlyOwner {\n        require(msg.sender == owner);\n        _;\n    }\n    struct shareholder {\n        bytes32 uid; // bytes32 type are basically strings\n        uint proposalIDVote;\n    }\n    // describes a proposal\n    struct proposal {\n        bytes32 name;\n        bytes32 party; \n        // \"bool doesExist\" is to check if this Struct exists\n        // This is so we can keep track of the proposals \n        bool doesExist; \n    }\n\n    // These state variables are used keep track of the number of proposals/shareholders \n    // and used to as a way to index them     \n    uint numproposals; // declares a state variable - number Of proposals\n    uint numshareholders;\n\n    \n    // Think of these as a hash table, with the key as a uint and value of \n    // the struct proposal/shareholder. These mappings will be used in the majority\n    // of our transactions/calls\n    // These mappings will hold all the proposals and shareholders respectively\n    mapping (uint => proposal) proposals;\n    mapping (uint => shareholder) shareholders;\n    \n    /* * * * * * * * * * * * * * * * * * * * * * * * * * * * * * * *\n     *  These functions perform transactions, editing the mappings *\n     * * * * * * * * * * * * * * * * * * * * * * * * * * * * * * * */\n\n    function addproposal(bytes32 name, bytes32 party) onlyOwner public {\n        // proposalID is the return variable\n        uint proposalID = numproposals++;\n        // Create new proposal Struct with name and saves it to storage.\n        proposals[proposalID] = proposal(name,party,true);\n        Addedproposal(proposalID);\n    }\n\n    function vote(bytes32 uid, uint proposalID) public {\n        // checks if the struct exists for that proposal\n        if (proposals[proposalID].doesExist == true) {\n            uint shareholderID = numshareholders++; //shareholderID is the return variable\n            shareholders[shareholderID] = shareholder(uid,proposalID);\n        }\n    }\n\n    /* * * * * * * * * * * * * * * * * * * * * * * * * * \n     *  Getter Functions, marked by the key word \"view\" *\n     * * * * * * * * * * * * * * * * * * * * * * * * * */\n    \n\n    // finds the total amount of votes for a specific proposal by looping\n    // through shareholders \n    function totalVotes(uint proposalID) view public returns (uint) {\n        uint numOfVotes = 0; // we will return this\n        for (uint i = 0; i < numshareholders; i++) {\n            // if the shareholder votes for this specific proposal, we increment the number\n            if (shareholders[i].proposalIDVote == proposalID) {\n                numOfVotes++;\n            }\n        }\n        return numOfVotes; \n    }\n\n    function getNumOfproposals() public view returns(uint) {\n        return numproposals;\n    }\n\n    function getNumOfshareholders() public view returns(uint) {\n        return numshareholders;\n    }\n    // returns proposal information, including its ID, name, and party\n    function getproposal(uint proposalID) public view returns (uint,bytes32, bytes32) {\n        return (proposalID,proposals[proposalID].name,proposals[proposalID].party);\n    }\n}\n\n",
  "sourcePath": "/home/basti/Desktop/GitHub/ethereum-voting/contracts/Voting.sol",
  "compiler": {
    "name": "solc",
    "version": "0.4.18+commit.9cf6e910.Emscripten.clang"
  },
  "schemaVersion": "1.0.1",
  "updatedAt": "2021-02-14T18:38:56.569Z"
}