{
  "contractName": "Voting",
  "abi": [
    {
      "constant": true,
      "inputs": [
        {
          "name": "candidateID",
          "type": "uint256"
        }
      ],
      "name": "totalVotes",
      "outputs": [
        {
          "name": "",
          "type": "uint256"
        }
      ],
      "payable": false,
      "stateMutability": "view",
      "type": "function"
    },
    {
      "constant": true,
      "inputs": [
        {
          "name": "candidateID",
          "type": "uint256"
        }
      ],
      "name": "getCandidate",
      "outputs": [
        {
          "name": "",
          "type": "uint256"
        },
        {
          "name": "",
          "type": "bytes32"
        },
        {
          "name": "",
          "type": "bytes32"
        }
      ],
      "payable": false,
      "stateMutability": "view",
      "type": "function"
    },
    {
      "constant": true,
      "inputs": [],
      "name": "getNumOfVoters",
      "outputs": [
        {
          "name": "",
          "type": "uint256"
        }
      ],
      "payable": false,
      "stateMutability": "view",
      "type": "function"
    },
    {
      "constant": false,
      "inputs": [
        {
          "name": "uid",
          "type": "bytes32"
        },
        {
          "name": "candidateID",
          "type": "uint256"
        }
      ],
      "name": "vote",
      "outputs": [],
      "payable": false,
      "stateMutability": "nonpayable",
      "type": "function"
    },
    {
      "constant": false,
      "inputs": [
        {
          "name": "name",
          "type": "bytes32"
        },
        {
          "name": "party",
          "type": "bytes32"
        }
      ],
      "name": "addCandidate",
      "outputs": [],
      "payable": false,
      "stateMutability": "nonpayable",
      "type": "function"
    },
    {
      "constant": true,
      "inputs": [],
      "name": "getNumOfCandidates",
      "outputs": [
        {
          "name": "",
          "type": "uint256"
        }
      ],
      "payable": false,
      "stateMutability": "view",
      "type": "function"
    },
    {
      "inputs": [],
      "payable": false,
      "stateMutability": "nonpayable",
      "type": "constructor"
    },
    {
      "anonymous": false,
      "inputs": [
        {
          "indexed": false,
          "name": "candidateID",
          "type": "uint256"
        }
      ],
      "name": "AddedCandidate",
      "type": "event"
    }
  ],
  "bytecode": "0x6060604052341561000f57600080fd5b336000806101000a81548173ffffffffffffffffffffffffffffffffffffffff021916908373ffffffffffffffffffffffffffffffffffffffff1602179055506104528061005e6000396000f300606060405260043610610078576000357c0100000000000000000000000000000000000000000000000000000000900463ffffffff16806319e6e1581461007d57806335b8e820146100b457806365fc783c146101095780639ef1204c14610132578063a1adbb2514610162578063e8685ba114610196575b600080fd5b341561008857600080fd5b61009e60048080359060200190919050506101bf565b6040518082815260200191505060405180910390f35b34156100bf57600080fd5b6100d56004808035906020019091905050610214565b6040518084815260200183600019166000191681526020018260001916600019168152602001935050505060405180910390f35b341561011457600080fd5b61011c610255565b6040518082815260200191505060405180910390f35b341561013d57600080fd5b61016060048080356000191690602001909190803590602001909190505061025f565b005b341561016d57600080fd5b610194600480803560001916906020019091908035600019169060200190919050506102f3565b005b34156101a157600080fd5b6101a961041c565b6040518082815260200191505060405180910390f35b6000806000809150600090505b60025481101561020a5783600460008381526020019081526020016000206001015414156101fd5781806001019250505b80806001019150506101cc565b8192505050919050565b600080600083600360008681526020019081526020016000206000015460036000878152602001908152602001600020600101549250925092509193909250565b6000600254905090565b6000600115156003600084815260200190815260200160002060020160009054906101000a900460ff16151514156102ee5760026000815480929190600101919050559050604080519081016040528084600019168152602001838152506004600083815260200190815260200160002060008201518160000190600019169055602082015181600101559050505b505050565b60008060009054906101000a900473ffffffffffffffffffffffffffffffffffffffff1673ffffffffffffffffffffffffffffffffffffffff163373ffffffffffffffffffffffffffffffffffffffff1614151561035057600080fd5b6001600081548092919060010191905055905060606040519081016040528084600019168152602001836000191681526020016001151581525060036000838152602001908152602001600020600082015181600001906000191690556020820151816001019060001916905560408201518160020160006101000a81548160ff0219169083151502179055509050507fec542c373a064661ffef02d633752debf28f3e6c9f253680822d9ccf8b47aec6816040518082815260200191505060405180910390a1505050565b60006001549050905600a165627a7a723058201226c625795ebddb69bb72903b9ff9e566583bb0646f131a9103e27d812669cc0029",
  "source": "pragma solidity ^0.4.18;\n// written for Solidity version 0.4.18 and above that doesnt break functionality\n\ncontract Voting {\n    // an event that is called whenever a Candidate is added so the frontend could\n    // appropriately display the candidate with the right element id (it is used\n    // to vote for the candidate, since it is one of arguments for the function \"vote\")\n    event AddedCandidate(uint candidateID);\n\n    // describes a Voter, which has an id and the ID of the candidate they voted for\n    address owner;\n    function Voting()public {\n        owner=msg.sender;\n    }\n    modifier onlyOwner {\n        require(msg.sender == owner);\n        _;\n    }\n    struct Voter {\n        bytes32 uid; // bytes32 type are basically strings\n        uint candidateIDVote;\n    }\n    // describes a Candidate\n    struct Candidate {\n        bytes32 name;\n        bytes32 party; \n        // \"bool doesExist\" is to check if this Struct exists\n        // This is so we can keep track of the candidates \n        bool doesExist; \n    }\n\n    // These state variables are used keep track of the number of Candidates/Voters \n    // and used to as a way to index them     \n    uint numCandidates; // declares a state variable - number Of Candidates\n    uint numVoters;\n\n    \n    // Think of these as a hash table, with the key as a uint and value of \n    // the struct Candidate/Voter. These mappings will be used in the majority\n    // of our transactions/calls\n    // These mappings will hold all the candidates and Voters respectively\n    mapping (uint => Candidate) candidates;\n    mapping (uint => Voter) voters;\n    \n    /* * * * * * * * * * * * * * * * * * * * * * * * * * * * * * * *\n     *  These functions perform transactions, editing the mappings *\n     * * * * * * * * * * * * * * * * * * * * * * * * * * * * * * * */\n\n    function addCandidate(bytes32 name, bytes32 party) onlyOwner public {\n        // candidateID is the return variable\n        uint candidateID = numCandidates++;\n        // Create new Candidate Struct with name and saves it to storage.\n        candidates[candidateID] = Candidate(name,party,true);\n        AddedCandidate(candidateID);\n    }\n\n    function vote(bytes32 uid, uint candidateID) public {\n        // checks if the struct exists for that candidate\n        if (candidates[candidateID].doesExist == true) {\n            uint voterID = numVoters++; //voterID is the return variable\n            voters[voterID] = Voter(uid,candidateID);\n        }\n    }\n\n    /* * * * * * * * * * * * * * * * * * * * * * * * * * \n     *  Getter Functions, marked by the key word \"view\" *\n     * * * * * * * * * * * * * * * * * * * * * * * * * */\n    \n\n    // finds the total amount of votes for a specific candidate by looping\n    // through voters \n    function totalVotes(uint candidateID) view public returns (uint) {\n        uint numOfVotes = 0; // we will return this\n        for (uint i = 0; i < numVoters; i++) {\n            // if the voter votes for this specific candidate, we increment the number\n            if (voters[i].candidateIDVote == candidateID) {\n                numOfVotes++;\n            }\n        }\n        return numOfVotes; \n    }\n\n    function getNumOfCandidates() public view returns(uint) {\n        return numCandidates;\n    }\n\n    function getNumOfVoters() public view returns(uint) {\n        return numVoters;\n    }\n    // returns candidate information, including its ID, name, and party\n    function getCandidate(uint candidateID) public view returns (uint,bytes32, bytes32) {\n        return (candidateID,candidates[candidateID].name,candidates[candidateID].party);\n    }\n}\n",
  "sourcePath": "/home/basti/Desktop/GitHub/ethereum-voting/contracts/Voting.sol",
  "compiler": {
    "name": "solc",
    "version": "0.4.18+commit.9cf6e910.Emscripten.clang"
  },
  "schemaVersion": "1.0.1",
  "updatedAt": "2021-02-14T14:40:08.949Z"
}